:1000000022C02FC02EC042C064C02BC02AC029C04D
:1000100028C027C026C025C07FC023C022C021C061
:1000200020C01FC01EC00008040C020A060E0109F1
:10003000050D030B070FF505E3671776F645F77710
:10004000D7B6F0A7F2D211241FBECFEDCDBF20E06E
:10005000A0E6B0E001C01D92A536B207E1F7D5D009
:10006000E9C0CECF1FBC89E18EBD12BC80E49FE108
:1000700095BD84BD88EE93E09BBD8ABD88E59BE17C
:1000800099BD88BD89B7886689BF08951F920F9270
:100090000FB60F9211242F933F934F935F936F935B
:1000A0007F938F939F93AF93BF93EF93FF9396D0DC
:1000B000FF91EF91BF91AF919F918F917F916F9140
:1000C0005F914F913F912F910F900FBE0F901F9016
:1000D00018951F920F920FB60F9211242F933F93F2
:1000E0004F935F936F937F938F939F93AF93BF9340
:1000F000EF93FF9358D0FF91EF91BF91AF919F91F4
:100100008F917F916F915F914F913F912F910F90C0
:100110000FBE0F901F9018951F920F920FB60F925F
:1001200011242F933F934F935F936F937F938F93FC
:100130009F93AF93BF93EF93FF934BD0FF91EF91BA
:10014000BF91AF919F918F917F916F915F914F91EF
:100150003F912F910F900FBE0F901F9018958FEF2A
:1001600081BB12BA8AB383608ABB8BB38C7F8BBB93
:1001700010926400E2E6F0E010821182E0E6F0E026
:10018000108211820895E62FF0E0EA5CFF4F94910F
:10019000A0E6B0E09C93E82FF0E0EA5CFF4F84918A
:1001A00011968C930895E0916400F0E0EA5CFF4FB3
:1001B000849182BB8BB38C7F8BBB309164002BB35B
:1001C00081E090E001C0880F3A95EAF7822B8BBB63
:1001D000089512BA8BB38C7F8BBB08958091640015
:1001E0008F5F8093640080916400817080936400CD
:1001F00080916400811108C080916000809362004A
:1002000080916100809363000895A9DF2BDF17BA06
:10021000789426B3822F82958F7090E08A5D9F4FED
:10022000FC016491E22FEF70F0E0EA5DFF4F8491F2
:08023000AADFEFCFF894FFCF25
:00000001FF
